{
  "_format": "hh-sol-artifact-1",
  "contractName": "MerkleDistribution",
  "sourceName": "contracts/MerkleDistribution.sol",
  "abi": [
    {
      "inputs": [
        {
          "internalType": "address",
          "name": "_token",
          "type": "address"
        },
        {
          "internalType": "bytes32",
          "name": "_merkleRoot",
          "type": "bytes32"
        },
        {
          "internalType": "address",
          "name": "owner",
          "type": "address"
        },
        {
          "internalType": "address",
          "name": "_donationReceiver",
          "type": "address"
        }
      ],
      "stateMutability": "nonpayable",
      "type": "constructor"
    },
    {
      "inputs": [
        {
          "internalType": "address",
          "name": "target",
          "type": "address"
        }
      ],
      "name": "AddressEmptyCode",
      "type": "error"
    },
    {
      "inputs": [
        {
          "internalType": "address",
          "name": "account",
          "type": "address"
        }
      ],
      "name": "AddressInsufficientBalance",
      "type": "error"
    },
    {
      "inputs": [],
      "name": "FailedInnerCall",
      "type": "error"
    },
    {
      "inputs": [
        {
          "internalType": "address",
          "name": "owner",
          "type": "address"
        }
      ],
      "name": "OwnableInvalidOwner",
      "type": "error"
    },
    {
      "inputs": [
        {
          "internalType": "address",
          "name": "account",
          "type": "address"
        }
      ],
      "name": "OwnableUnauthorizedAccount",
      "type": "error"
    },
    {
      "inputs": [
        {
          "internalType": "address",
          "name": "token",
          "type": "address"
        }
      ],
      "name": "SafeERC20FailedOperation",
      "type": "error"
    },
    {
      "anonymous": false,
      "inputs": [
        {
          "indexed": true,
          "internalType": "address",
          "name": "claimer",
          "type": "address"
        },
        {
          "indexed": false,
          "internalType": "uint256",
          "name": "amount",
          "type": "uint256"
        }
      ],
      "name": "Claimed",
      "type": "event"
    },
    {
      "anonymous": false,
      "inputs": [
        {
          "indexed": true,
          "internalType": "address",
          "name": "donator",
          "type": "address"
        },
        {
          "indexed": false,
          "internalType": "uint256",
          "name": "amount",
          "type": "uint256"
        }
      ],
      "name": "Donated",
      "type": "event"
    },
    {
      "anonymous": false,
      "inputs": [
        {
          "indexed": true,
          "internalType": "address",
          "name": "previousOwner",
          "type": "address"
        },
        {
          "indexed": true,
          "internalType": "address",
          "name": "newOwner",
          "type": "address"
        }
      ],
      "name": "OwnershipTransferred",
      "type": "event"
    },
    {
      "inputs": [
        {
          "internalType": "bytes32[]",
          "name": "merkleProof",
          "type": "bytes32[]"
        },
        {
          "internalType": "uint256",
          "name": "amountAllocated",
          "type": "uint256"
        }
      ],
      "name": "claim",
      "outputs": [],
      "stateMutability": "nonpayable",
      "type": "function"
    },
    {
      "inputs": [
        {
          "internalType": "address",
          "name": "",
          "type": "address"
        }
      ],
      "name": "claimed",
      "outputs": [
        {
          "internalType": "uint256",
          "name": "",
          "type": "uint256"
        }
      ],
      "stateMutability": "view",
      "type": "function"
    },
    {
      "inputs": [],
      "name": "disableClaiming",
      "outputs": [],
      "stateMutability": "nonpayable",
      "type": "function"
    },
    {
      "inputs": [],
      "name": "disableContract",
      "outputs": [],
      "stateMutability": "nonpayable",
      "type": "function"
    },
    {
      "inputs": [
        {
          "internalType": "bytes32[]",
          "name": "merkleProof",
          "type": "bytes32[]"
        },
        {
          "internalType": "uint256",
          "name": "amountAllocated",
          "type": "uint256"
        }
      ],
      "name": "donate",
      "outputs": [],
      "stateMutability": "nonpayable",
      "type": "function"
    },
    {
      "inputs": [
        {
          "internalType": "bytes32[]",
          "name": "merkleProof",
          "type": "bytes32[]"
        },
        {
          "internalType": "uint256",
          "name": "amountAllocated",
          "type": "uint256"
        }
      ],
      "name": "donateAndClaim",
      "outputs": [],
      "stateMutability": "nonpayable",
      "type": "function"
    },
    {
      "inputs": [],
      "name": "donationReceiver",
      "outputs": [
        {
          "internalType": "address",
          "name": "",
          "type": "address"
        }
      ],
      "stateMutability": "view",
      "type": "function"
    },
    {
      "inputs": [],
      "name": "enableClaiming",
      "outputs": [],
      "stateMutability": "nonpayable",
      "type": "function"
    },
    {
      "inputs": [],
      "name": "enableContract",
      "outputs": [],
      "stateMutability": "nonpayable",
      "type": "function"
    },
    {
      "inputs": [],
      "name": "isClaimingEnabled",
      "outputs": [
        {
          "internalType": "bool",
          "name": "",
          "type": "bool"
        }
      ],
      "stateMutability": "view",
      "type": "function"
    },
    {
      "inputs": [],
      "name": "isContractEnabled",
      "outputs": [
        {
          "internalType": "bool",
          "name": "",
          "type": "bool"
        }
      ],
      "stateMutability": "view",
      "type": "function"
    },
    {
      "inputs": [],
      "name": "merkleRoot",
      "outputs": [
        {
          "internalType": "bytes32",
          "name": "",
          "type": "bytes32"
        }
      ],
      "stateMutability": "view",
      "type": "function"
    },
    {
      "inputs": [],
      "name": "owner",
      "outputs": [
        {
          "internalType": "address",
          "name": "",
          "type": "address"
        }
      ],
      "stateMutability": "view",
      "type": "function"
    },
    {
      "inputs": [],
      "name": "renounceOwnership",
      "outputs": [],
      "stateMutability": "nonpayable",
      "type": "function"
    },
    {
      "inputs": [
        {
          "internalType": "bytes32",
          "name": "nextMerkleRoot",
          "type": "bytes32"
        }
      ],
      "name": "setMerkleRoot",
      "outputs": [],
      "stateMutability": "nonpayable",
      "type": "function"
    },
    {
      "inputs": [],
      "name": "token",
      "outputs": [
        {
          "internalType": "address",
          "name": "",
          "type": "address"
        }
      ],
      "stateMutability": "view",
      "type": "function"
    },
    {
      "inputs": [
        {
          "internalType": "address",
          "name": "newOwner",
          "type": "address"
        }
      ],
      "name": "transferOwnership",
      "outputs": [],
      "stateMutability": "nonpayable",
      "type": "function"
    },
    {
      "inputs": [],
      "name": "withdraw",
      "outputs": [],
      "stateMutability": "nonpayable",
      "type": "function"
    }
  ],
  "bytecode": "0x60c06040523480156200001157600080fd5b5060405162001bb438038062001bb48339818101604052810190620000379190620002d7565b81600073ffffffffffffffffffffffffffffffffffffffff168173ffffffffffffffffffffffffffffffffffffffff1603620000ad5760006040517f1e4fbdf7000000000000000000000000000000000000000000000000000000008152600401620000a491906200035a565b60405180910390fd5b620000be816200016e60201b60201c565b508373ffffffffffffffffffffffffffffffffffffffff1660808173ffffffffffffffffffffffffffffffffffffffff1681525050826001819055508073ffffffffffffffffffffffffffffffffffffffff1660a08173ffffffffffffffffffffffffffffffffffffffff16815250506000600260006101000a81548160ff0219169083151502179055506000600260016101000a81548160ff0219169083151502179055505050505062000377565b60008060009054906101000a900473ffffffffffffffffffffffffffffffffffffffff169050816000806101000a81548173ffffffffffffffffffffffffffffffffffffffff021916908373ffffffffffffffffffffffffffffffffffffffff1602179055508173ffffffffffffffffffffffffffffffffffffffff168173ffffffffffffffffffffffffffffffffffffffff167f8be0079c531659141344cd1fd0a4f28419497f9722a3daafe3b4186f6b6457e060405160405180910390a35050565b600080fd5b600073ffffffffffffffffffffffffffffffffffffffff82169050919050565b6000620002648262000237565b9050919050565b620002768162000257565b81146200028257600080fd5b50565b60008151905062000296816200026b565b92915050565b6000819050919050565b620002b1816200029c565b8114620002bd57600080fd5b50565b600081519050620002d181620002a6565b92915050565b60008060008060808587031215620002f457620002f362000232565b5b6000620003048782880162000285565b94505060206200031787828801620002c0565b93505060406200032a8782880162000285565b92505060606200033d8782880162000285565b91505092959194509250565b620003548162000257565b82525050565b600060208201905062000371600083018462000349565b92915050565b60805160a0516117df620003d5600039600081816102ee015281816106bb015261099c015260008181610454015281816105020152818161059c015281816106dd01528181610728015281816109be0152610af201526117df6000f3fe608060405234801561001057600080fd5b50600436106101165760003560e01c80637cb64759116100a2578063c884ef8311610071578063c884ef8314610223578063df07832814610253578063e6cf16571461026f578063f2fde38b1461028d578063fc0c546a146102a957610116565b80637cb64759146101c1578063894ba833146101dd5780638da5cb5b146101e75780639d602d2d1461020557610116565b80633b439351116100e95780633b4393511461016b5780633ccfd60b146101875780633ed25864146101915780635ff692cb146101ad578063715018a6146101b757610116565b80632081a88c1461011b578063213ea6bb146101255780632eb4a7ab14610143578063367edd3214610161575b600080fd5b6101236102c7565b005b61012d6102ec565b60405161013a9190611111565b60405180910390f35b61014b610310565b6040516101589190611145565b60405180910390f35b610169610316565b005b61018560048036038101906101809190611205565b61033b565b005b61018f6104ed565b005b6101ab60048036038101906101a69190611205565b6105e2565b005b6101b5610810565b005b6101bf610835565b005b6101db60048036038101906101d69190611291565b610849565b005b6101e561085b565b005b6101ef610880565b6040516101fc9190611111565b60405180910390f35b61020d6108a9565b60405161021a91906112d9565b60405180910390f35b61023d60048036038101906102389190611320565b6108bc565b60405161024a919061135c565b60405180910390f35b61026d60048036038101906102689190611205565b6108d4565b005b610277610a57565b60405161028491906112d9565b60405180910390f35b6102a760048036038101906102a29190611320565b610a6a565b005b6102b1610af0565b6040516102be9190611111565b60405180910390f35b6102cf610b14565b6001600260006101000a81548160ff021916908315150217905550565b7f000000000000000000000000000000000000000000000000000000000000000081565b60015481565b61031e610b14565b6001600260016101000a81548160ff021916908315150217905550565b600260009054906101000a900460ff1661038a576040517f08c379a0000000000000000000000000000000000000000000000000000000008152600401610381906113d4565b60405180910390fd5b600260019054906101000a900460ff166103d9576040517f08c379a00000000000000000000000000000000000000000000000000000000081526004016103d090611440565b60405180910390fd5b6103e4838383610b9b565b600033905060006103f58284610c47565b905080600360008473ffffffffffffffffffffffffffffffffffffffff1673ffffffffffffffffffffffffffffffffffffffff1681526020019081526020016000206000828254610446919061148f565b9250508190555061049882827f000000000000000000000000000000000000000000000000000000000000000073ffffffffffffffffffffffffffffffffffffffff16610cb29092919063ffffffff16565b8173ffffffffffffffffffffffffffffffffffffffff167fd8138f8a3f377c5259ca548e70e4c2de94f129f5a11036a15b69513cba2b426a826040516104de919061135c565b60405180910390a25050505050565b6104f5610b14565b6105e0610500610880565b7f000000000000000000000000000000000000000000000000000000000000000073ffffffffffffffffffffffffffffffffffffffff166370a08231306040518263ffffffff1660e01b81526004016105599190611111565b602060405180830381865afa158015610576573d6000803e3d6000fd5b505050506040513d601f19601f8201168201806040525081019061059a91906114d8565b7f000000000000000000000000000000000000000000000000000000000000000073ffffffffffffffffffffffffffffffffffffffff16610cb29092919063ffffffff16565b565b600260019054906101000a900460ff16610631576040517f08c379a000000000000000000000000000000000000000000000000000000000815260040161062890611440565b60405180910390fd5b61063c838383610b9b565b6000339050600061064d8284610c47565b905080600360008473ffffffffffffffffffffffffffffffffffffffff1673ffffffffffffffffffffffffffffffffffffffff168152602001908152602001600020600082825461069e919061148f565b9250508190555060006002826106b49190611534565b90506107217f0000000000000000000000000000000000000000000000000000000000000000827f000000000000000000000000000000000000000000000000000000000000000073ffffffffffffffffffffffffffffffffffffffff16610cb29092919063ffffffff16565b61076c83827f000000000000000000000000000000000000000000000000000000000000000073ffffffffffffffffffffffffffffffffffffffff16610cb29092919063ffffffff16565b8273ffffffffffffffffffffffffffffffffffffffff167fd8138f8a3f377c5259ca548e70e4c2de94f129f5a11036a15b69513cba2b426a826040516107b2919061135c565b60405180910390a28273ffffffffffffffffffffffffffffffffffffffff167f2a01595cddf097c90216094025db714da3f4e5bd8877b56ba86a24ecead8e54382604051610800919061135c565b60405180910390a2505050505050565b610818610b14565b6000600260006101000a81548160ff021916908315150217905550565b61083d610b14565b6108476000610d31565b565b610851610b14565b8060018190555050565b610863610b14565b6000600260016101000a81548160ff021916908315150217905550565b60008060009054906101000a900473ffffffffffffffffffffffffffffffffffffffff16905090565b600260019054906101000a900460ff1681565b60036020528060005260406000206000915090505481565b600260019054906101000a900460ff16610923576040517f08c379a000000000000000000000000000000000000000000000000000000000815260040161091a90611440565b60405180910390fd5b61092e838383610b9b565b6000339050600061093f8284610c47565b905080600360008473ffffffffffffffffffffffffffffffffffffffff1673ffffffffffffffffffffffffffffffffffffffff1681526020019081526020016000206000828254610990919061148f565b92505081905550610a027f0000000000000000000000000000000000000000000000000000000000000000827f000000000000000000000000000000000000000000000000000000000000000073ffffffffffffffffffffffffffffffffffffffff16610cb29092919063ffffffff16565b8173ffffffffffffffffffffffffffffffffffffffff167f2a01595cddf097c90216094025db714da3f4e5bd8877b56ba86a24ecead8e54382604051610a48919061135c565b60405180910390a25050505050565b600260009054906101000a900460ff1681565b610a72610b14565b600073ffffffffffffffffffffffffffffffffffffffff168173ffffffffffffffffffffffffffffffffffffffff1603610ae45760006040517f1e4fbdf7000000000000000000000000000000000000000000000000000000008152600401610adb9190611111565b60405180910390fd5b610aed81610d31565b50565b7f000000000000000000000000000000000000000000000000000000000000000081565b610b1c610df5565b73ffffffffffffffffffffffffffffffffffffffff16610b3a610880565b73ffffffffffffffffffffffffffffffffffffffff1614610b9957610b5d610df5565b6040517f118cdaa7000000000000000000000000000000000000000000000000000000008152600401610b909190611111565b60405180910390fd5b565b6000600154905060003383604051602001610bb7929190611565565b60405160208183030381529060405280519060200120604051602001610bdd91906115af565b604051602081830303815290604052805190602001209050610c0185858484610dfd565b610c40576040517f08c379a0000000000000000000000000000000000000000000000000000000008152600401610c3790611616565b60405180910390fd5b5050505050565b600080600360008573ffffffffffffffffffffffffffffffffffffffff1673ffffffffffffffffffffffffffffffffffffffff16815260200190815260200160002054905082811115610c9d57610c9c611636565b5b8083610ca99190611665565b91505092915050565b610d2c838473ffffffffffffffffffffffffffffffffffffffff1663a9059cbb8585604051602401610ce5929190611565565b604051602081830303815290604052915060e01b6020820180517bffffffffffffffffffffffffffffffffffffffffffffffffffffffff8381831617835250505050610e52565b505050565b60008060009054906101000a900473ffffffffffffffffffffffffffffffffffffffff169050816000806101000a81548173ffffffffffffffffffffffffffffffffffffffff021916908373ffffffffffffffffffffffffffffffffffffffff1602179055508173ffffffffffffffffffffffffffffffffffffffff168173ffffffffffffffffffffffffffffffffffffffff167f8be0079c531659141344cd1fd0a4f28419497f9722a3daafe3b4186f6b6457e060405160405180910390a35050565b600033905090565b60008082905060005b86869050811015610e4357610e3482888884818110610e2857610e27611699565b5b90506020020135610ee9565b91508080600101915050610e06565b50838114915050949350505050565b6000610e7d828473ffffffffffffffffffffffffffffffffffffffff16610f1990919063ffffffff16565b90506000815114158015610ea2575080806020019051810190610ea091906116f4565b155b15610ee457826040517f5274afe7000000000000000000000000000000000000000000000000000000008152600401610edb9190611111565b60405180910390fd5b505050565b6000818310610ef9578183610efc565b82825b809350819450505082600052816020526040600020905092915050565b6060610f2783836000610f2f565b905092915050565b606081471015610f7657306040517fcd786059000000000000000000000000000000000000000000000000000000008152600401610f6d9190611111565b60405180910390fd5b6000808573ffffffffffffffffffffffffffffffffffffffff168486604051610f9f9190611792565b60006040518083038185875af1925050503d8060008114610fdc576040519150601f19603f3d011682016040523d82523d6000602084013e610fe1565b606091505b5091509150610ff1868383610ffc565b925050509392505050565b6060826110115761100c8261108b565b611083565b60008251148015611039575060008473ffffffffffffffffffffffffffffffffffffffff163b145b1561107b57836040517f9996b3150000000000000000000000000000000000000000000000000000000081526004016110729190611111565b60405180910390fd5b819050611084565b5b9392505050565b60008151111561109e5780518082602001fd5b6040517f1425ea4200000000000000000000000000000000000000000000000000000000815260040160405180910390fd5b600073ffffffffffffffffffffffffffffffffffffffff82169050919050565b60006110fb826110d0565b9050919050565b61110b816110f0565b82525050565b60006020820190506111266000830184611102565b92915050565b6000819050919050565b61113f8161112c565b82525050565b600060208201905061115a6000830184611136565b92915050565b600080fd5b600080fd5b600080fd5b600080fd5b600080fd5b60008083601f84011261118f5761118e61116a565b5b8235905067ffffffffffffffff8111156111ac576111ab61116f565b5b6020830191508360208202830111156111c8576111c7611174565b5b9250929050565b6000819050919050565b6111e2816111cf565b81146111ed57600080fd5b50565b6000813590506111ff816111d9565b92915050565b60008060006040848603121561121e5761121d611160565b5b600084013567ffffffffffffffff81111561123c5761123b611165565b5b61124886828701611179565b9350935050602061125b868287016111f0565b9150509250925092565b61126e8161112c565b811461127957600080fd5b50565b60008135905061128b81611265565b92915050565b6000602082840312156112a7576112a6611160565b5b60006112b58482850161127c565b91505092915050565b60008115159050919050565b6112d3816112be565b82525050565b60006020820190506112ee60008301846112ca565b92915050565b6112fd816110f0565b811461130857600080fd5b50565b60008135905061131a816112f4565b92915050565b60006020828403121561133657611335611160565b5b60006113448482850161130b565b91505092915050565b611356816111cf565b82525050565b6000602082019050611371600083018461134d565b92915050565b600082825260208201905092915050565b7f436c61696d696e672069732064697361626c6564000000000000000000000000600082015250565b60006113be601483611377565b91506113c982611388565b602082019050919050565b600060208201905081810360008301526113ed816113b1565b9050919050565b7f436f6e747261637473206172652064697361626c656400000000000000000000600082015250565b600061142a601683611377565b9150611435826113f4565b602082019050919050565b600060208201905081810360008301526114598161141d565b9050919050565b7f4e487b7100000000000000000000000000000000000000000000000000000000600052601160045260246000fd5b600061149a826111cf565b91506114a5836111cf565b92508282019050808211156114bd576114bc611460565b5b92915050565b6000815190506114d2816111d9565b92915050565b6000602082840312156114ee576114ed611160565b5b60006114fc848285016114c3565b91505092915050565b7f4e487b7100000000000000000000000000000000000000000000000000000000600052601260045260246000fd5b600061153f826111cf565b915061154a836111cf565b92508261155a57611559611505565b5b828204905092915050565b600060408201905061157a6000830185611102565b611587602083018461134d565b9392505050565b6000819050919050565b6115a96115a48261112c565b61158e565b82525050565b60006115bb8284611598565b60208201915081905092915050565b7f496e76616c696420416c6c6f636174696f6e2050726f6f660000000000000000600082015250565b6000611600601883611377565b915061160b826115ca565b602082019050919050565b6000602082019050818103600083015261162f816115f3565b9050919050565b7f4e487b7100000000000000000000000000000000000000000000000000000000600052600160045260246000fd5b6000611670826111cf565b915061167b836111cf565b925082820390508181111561169357611692611460565b5b92915050565b7f4e487b7100000000000000000000000000000000000000000000000000000000600052603260045260246000fd5b6116d1816112be565b81146116dc57600080fd5b50565b6000815190506116ee816116c8565b92915050565b60006020828403121561170a57611709611160565b5b6000611718848285016116df565b91505092915050565b600081519050919050565b600081905092915050565b60005b8381101561175557808201518184015260208101905061173a565b60008484015250505050565b600061176c82611721565b611776818561172c565b9350611786818560208601611737565b80840191505092915050565b600061179e8284611761565b91508190509291505056fea26469706673582212206d7d22f15cda37320d642f2acb68887d31128d108e158554685543c7d3d49a0e64736f6c63430008180033",
  "linkReferences": {},
  "deployedLinkReferences": {}
}