{
  "_format": "hh-sol-artifact-1",
  "contractName": "MerkleDistribution",
  "sourceName": "contracts/MerkleDistribution.sol",
  "abi": [
    {
      "inputs": [
        {
          "internalType": "address",
          "name": "_token",
          "type": "address"
        },
        {
          "internalType": "bytes32",
          "name": "_merkleRoot",
          "type": "bytes32"
        },
        {
          "internalType": "bytes32",
          "name": "_merkleRootMultiplier",
          "type": "bytes32"
        },
        {
          "internalType": "address",
          "name": "owner",
          "type": "address"
        },
        {
          "internalType": "address",
          "name": "_donationReceiver",
          "type": "address"
        }
      ],
      "stateMutability": "nonpayable",
      "type": "constructor"
    },
    {
      "inputs": [
        {
          "internalType": "address",
          "name": "target",
          "type": "address"
        }
      ],
      "name": "AddressEmptyCode",
      "type": "error"
    },
    {
      "inputs": [
        {
          "internalType": "address",
          "name": "account",
          "type": "address"
        }
      ],
      "name": "AddressInsufficientBalance",
      "type": "error"
    },
    {
      "inputs": [],
      "name": "FailedInnerCall",
      "type": "error"
    },
    {
      "inputs": [
        {
          "internalType": "address",
          "name": "owner",
          "type": "address"
        }
      ],
      "name": "OwnableInvalidOwner",
      "type": "error"
    },
    {
      "inputs": [
        {
          "internalType": "address",
          "name": "account",
          "type": "address"
        }
      ],
      "name": "OwnableUnauthorizedAccount",
      "type": "error"
    },
    {
      "inputs": [
        {
          "internalType": "address",
          "name": "token",
          "type": "address"
        }
      ],
      "name": "SafeERC20FailedOperation",
      "type": "error"
    },
    {
      "anonymous": false,
      "inputs": [
        {
          "indexed": true,
          "internalType": "address",
          "name": "claimer",
          "type": "address"
        },
        {
          "indexed": false,
          "internalType": "uint256",
          "name": "amount",
          "type": "uint256"
        }
      ],
      "name": "Claimed",
      "type": "event"
    },
    {
      "anonymous": false,
      "inputs": [
        {
          "indexed": true,
          "internalType": "address",
          "name": "donator",
          "type": "address"
        },
        {
          "indexed": false,
          "internalType": "uint256",
          "name": "amount",
          "type": "uint256"
        }
      ],
      "name": "Donated",
      "type": "event"
    },
    {
      "anonymous": false,
      "inputs": [
        {
          "indexed": true,
          "internalType": "address",
          "name": "previousOwner",
          "type": "address"
        },
        {
          "indexed": true,
          "internalType": "address",
          "name": "newOwner",
          "type": "address"
        }
      ],
      "name": "OwnershipTransferred",
      "type": "event"
    },
    {
      "inputs": [
        {
          "internalType": "bytes32[]",
          "name": "merkleProofClaim",
          "type": "bytes32[]"
        },
        {
          "internalType": "uint256",
          "name": "amountAllocated",
          "type": "uint256"
        }
      ],
      "name": "claim",
      "outputs": [],
      "stateMutability": "nonpayable",
      "type": "function"
    },
    {
      "inputs": [
        {
          "internalType": "address",
          "name": "",
          "type": "address"
        }
      ],
      "name": "claimed",
      "outputs": [
        {
          "internalType": "uint256",
          "name": "",
          "type": "uint256"
        }
      ],
      "stateMutability": "view",
      "type": "function"
    },
    {
      "inputs": [],
      "name": "disableClaiming",
      "outputs": [],
      "stateMutability": "nonpayable",
      "type": "function"
    },
    {
      "inputs": [],
      "name": "disableContract",
      "outputs": [],
      "stateMutability": "nonpayable",
      "type": "function"
    },
    {
      "inputs": [
        {
          "internalType": "bytes32[]",
          "name": "merkleProof",
          "type": "bytes32[]"
        },
        {
          "internalType": "uint256",
          "name": "amountAllocated",
          "type": "uint256"
        },
        {
          "internalType": "bytes32[]",
          "name": "merkleProofMultiplier",
          "type": "bytes32[]"
        },
        {
          "internalType": "uint256",
          "name": "multiplier",
          "type": "uint256"
        }
      ],
      "name": "donate",
      "outputs": [],
      "stateMutability": "nonpayable",
      "type": "function"
    },
    {
      "inputs": [
        {
          "internalType": "bytes32[]",
          "name": "merkleProofClaim",
          "type": "bytes32[]"
        },
        {
          "internalType": "uint256",
          "name": "amountAllocated",
          "type": "uint256"
        },
        {
          "internalType": "bytes32[]",
          "name": "merkleProofMultiplier",
          "type": "bytes32[]"
        },
        {
          "internalType": "uint256",
          "name": "multiplier",
          "type": "uint256"
        }
      ],
      "name": "donateAndClaim",
      "outputs": [],
      "stateMutability": "nonpayable",
      "type": "function"
    },
    {
      "inputs": [
        {
          "internalType": "address",
          "name": "",
          "type": "address"
        }
      ],
      "name": "donated",
      "outputs": [
        {
          "internalType": "uint256",
          "name": "",
          "type": "uint256"
        }
      ],
      "stateMutability": "view",
      "type": "function"
    },
    {
      "inputs": [],
      "name": "donationReceiver",
      "outputs": [
        {
          "internalType": "address",
          "name": "",
          "type": "address"
        }
      ],
      "stateMutability": "view",
      "type": "function"
    },
    {
      "inputs": [],
      "name": "enableClaiming",
      "outputs": [],
      "stateMutability": "nonpayable",
      "type": "function"
    },
    {
      "inputs": [],
      "name": "enableContract",
      "outputs": [],
      "stateMutability": "nonpayable",
      "type": "function"
    },
    {
      "inputs": [],
      "name": "isClaimingEnabled",
      "outputs": [
        {
          "internalType": "bool",
          "name": "",
          "type": "bool"
        }
      ],
      "stateMutability": "view",
      "type": "function"
    },
    {
      "inputs": [],
      "name": "isContractEnabled",
      "outputs": [
        {
          "internalType": "bool",
          "name": "",
          "type": "bool"
        }
      ],
      "stateMutability": "view",
      "type": "function"
    },
    {
      "inputs": [],
      "name": "merkleRoot",
      "outputs": [
        {
          "internalType": "bytes32",
          "name": "",
          "type": "bytes32"
        }
      ],
      "stateMutability": "view",
      "type": "function"
    },
    {
      "inputs": [],
      "name": "merkleRootMultiplier",
      "outputs": [
        {
          "internalType": "bytes32",
          "name": "",
          "type": "bytes32"
        }
      ],
      "stateMutability": "view",
      "type": "function"
    },
    {
      "inputs": [],
      "name": "owner",
      "outputs": [
        {
          "internalType": "address",
          "name": "",
          "type": "address"
        }
      ],
      "stateMutability": "view",
      "type": "function"
    },
    {
      "inputs": [],
      "name": "renounceOwnership",
      "outputs": [],
      "stateMutability": "nonpayable",
      "type": "function"
    },
    {
      "inputs": [
        {
          "internalType": "bytes32",
          "name": "nextMerkleRoot",
          "type": "bytes32"
        }
      ],
      "name": "setMerkleRoot",
      "outputs": [],
      "stateMutability": "nonpayable",
      "type": "function"
    },
    {
      "inputs": [
        {
          "internalType": "bytes32",
          "name": "nextMerkleRoot",
          "type": "bytes32"
        }
      ],
      "name": "setMerkleRootMultiplier",
      "outputs": [],
      "stateMutability": "nonpayable",
      "type": "function"
    },
    {
      "inputs": [],
      "name": "token",
      "outputs": [
        {
          "internalType": "address",
          "name": "",
          "type": "address"
        }
      ],
      "stateMutability": "view",
      "type": "function"
    },
    {
      "inputs": [
        {
          "internalType": "address",
          "name": "newOwner",
          "type": "address"
        }
      ],
      "name": "transferOwnership",
      "outputs": [],
      "stateMutability": "nonpayable",
      "type": "function"
    },
    {
      "inputs": [],
      "name": "withdraw",
      "outputs": [],
      "stateMutability": "nonpayable",
      "type": "function"
    }
  ],
  "bytecode": "0x60c06040523480156200001157600080fd5b5060405162001f6c38038062001f6c8339818101604052810190620000379190620002df565b81600073ffffffffffffffffffffffffffffffffffffffff168173ffffffffffffffffffffffffffffffffffffffff1603620000ad5760006040517f1e4fbdf7000000000000000000000000000000000000000000000000000000008152600401620000a4919062000378565b60405180910390fd5b620000be816200017660201b60201c565b508473ffffffffffffffffffffffffffffffffffffffff1660808173ffffffffffffffffffffffffffffffffffffffff168152505083600181905550826002819055508073ffffffffffffffffffffffffffffffffffffffff1660a08173ffffffffffffffffffffffffffffffffffffffff16815250506000600360006101000a81548160ff0219169083151502179055506000600360016101000a81548160ff021916908315150217905550505050505062000395565b60008060009054906101000a900473ffffffffffffffffffffffffffffffffffffffff169050816000806101000a81548173ffffffffffffffffffffffffffffffffffffffff021916908373ffffffffffffffffffffffffffffffffffffffff1602179055508173ffffffffffffffffffffffffffffffffffffffff168173ffffffffffffffffffffffffffffffffffffffff167f8be0079c531659141344cd1fd0a4f28419497f9722a3daafe3b4186f6b6457e060405160405180910390a35050565b600080fd5b600073ffffffffffffffffffffffffffffffffffffffff82169050919050565b60006200026c826200023f565b9050919050565b6200027e816200025f565b81146200028a57600080fd5b50565b6000815190506200029e8162000273565b92915050565b6000819050919050565b620002b981620002a4565b8114620002c557600080fd5b50565b600081519050620002d981620002ae565b92915050565b600080600080600060a08688031215620002fe57620002fd6200023a565b5b60006200030e888289016200028d565b95505060206200032188828901620002c8565b94505060406200033488828901620002c8565b935050606062000347888289016200028d565b92505060806200035a888289016200028d565b9150509295509295909350565b62000372816200025f565b82525050565b60006020820190506200038f600083018462000367565b92915050565b60805160a051611b79620003f360003960008181610379015281816107e00152610a6e0152600081816104e5015281816105930152818161062d0152818161080201528181610a9001528181610adb0152610c8b0152611b796000f3fe608060405234801561001057600080fd5b50600436106101375760003560e01c80637cb64759116100b8578063e2b3845a1161007c578063e2b3845a14610292578063e6cf1657146102ae578063f2fde38b146102cc578063f40c4b51146102e8578063fb690dcc14610304578063fc0c546a1461033457610137565b80637cb6475914610200578063894ba8331461021c5780638da5cb5b146102265780639d602d2d14610244578063c884ef831461026257610137565b80633b439351116100ff5780633b439351146101aa5780633ccfd60b146101c65780635ff692cb146101d0578063715018a6146101da5780637355f58c146101e457610137565b80632081a88c1461013c578063213ea6bb146101465780632eb4a7ab14610164578063320e25ec14610182578063367edd32146101a0575b600080fd5b610144610352565b005b61014e610377565b60405161015b9190611356565b60405180910390f35b61016c61039b565b604051610179919061138a565b60405180910390f35b61018a6103a1565b604051610197919061138a565b60405180910390f35b6101a86103a7565b005b6101c460048036038101906101bf919061144a565b6103cc565b005b6101ce61057e565b005b6101d8610673565b005b6101e2610698565b005b6101fe60048036038101906101f991906114aa565b6106ac565b005b61021a6004803603810190610215919061157d565b61089e565b005b6102246108b0565b005b61022e6108d5565b60405161023b9190611356565b60405180910390f35b61024c6108fe565b60405161025991906115c5565b60405180910390f35b61027c6004803603810190610277919061160c565b610911565b6040516102899190611648565b60405180910390f35b6102ac60048036038101906102a791906114aa565b610929565b005b6102b6610bc6565b6040516102c391906115c5565b60405180910390f35b6102e660048036038101906102e1919061160c565b610bd9565b005b61030260048036038101906102fd919061157d565b610c5f565b005b61031e6004803603810190610319919061160c565b610c71565b60405161032b9190611648565b60405180910390f35b61033c610c89565b6040516103499190611356565b60405180910390f35b61035a610cad565b6001600360006101000a81548160ff021916908315150217905550565b7f000000000000000000000000000000000000000000000000000000000000000081565b60015481565b60025481565b6103af610cad565b6001600360016101000a81548160ff021916908315150217905550565b600360009054906101000a900460ff1661041b576040517f08c379a0000000000000000000000000000000000000000000000000000000008152600401610412906116c0565b60405180910390fd5b600360019054906101000a900460ff1661046a576040517f08c379a00000000000000000000000000000000000000000000000000000000081526004016104619061172c565b60405180910390fd5b610475838383610d34565b600033905060006104868284610de0565b905080600460008473ffffffffffffffffffffffffffffffffffffffff1673ffffffffffffffffffffffffffffffffffffffff16815260200190815260200160002060008282546104d7919061177b565b9250508190555061052982827f000000000000000000000000000000000000000000000000000000000000000073ffffffffffffffffffffffffffffffffffffffff16610e4b9092919063ffffffff16565b8173ffffffffffffffffffffffffffffffffffffffff167fd8138f8a3f377c5259ca548e70e4c2de94f129f5a11036a15b69513cba2b426a8260405161056f9190611648565b60405180910390a25050505050565b610586610cad565b6106716105916108d5565b7f000000000000000000000000000000000000000000000000000000000000000073ffffffffffffffffffffffffffffffffffffffff166370a08231306040518263ffffffff1660e01b81526004016105ea9190611356565b602060405180830381865afa158015610607573d6000803e3d6000fd5b505050506040513d601f19601f8201168201806040525081019061062b91906117c4565b7f000000000000000000000000000000000000000000000000000000000000000073ffffffffffffffffffffffffffffffffffffffff16610e4b9092919063ffffffff16565b565b61067b610cad565b6000600360006101000a81548160ff021916908315150217905550565b6106a0610cad565b6106aa6000610eca565b565b600360019054906101000a900460ff166106fb576040517f08c379a00000000000000000000000000000000000000000000000000000000081526004016106f29061172c565b60405180910390fd5b610706868686610d34565b610711838383610f8e565b60003390506000826107238388610de0565b61072d91906117f1565b905080600460008473ffffffffffffffffffffffffffffffffffffffff1673ffffffffffffffffffffffffffffffffffffffff168152602001908152602001600020600082825461077e919061177b565b9250508190555080600560008473ffffffffffffffffffffffffffffffffffffffff1673ffffffffffffffffffffffffffffffffffffffff16815260200190815260200160002060008282546107d4919061177b565b925050819055506108467f0000000000000000000000000000000000000000000000000000000000000000827f000000000000000000000000000000000000000000000000000000000000000073ffffffffffffffffffffffffffffffffffffffff16610e4b9092919063ffffffff16565b8173ffffffffffffffffffffffffffffffffffffffff167f2a01595cddf097c90216094025db714da3f4e5bd8877b56ba86a24ecead8e5438260405161088c9190611648565b60405180910390a25050505050505050565b6108a6610cad565b8060018190555050565b6108b8610cad565b6000600360016101000a81548160ff021916908315150217905550565b60008060009054906101000a900473ffffffffffffffffffffffffffffffffffffffff16905090565b600360019054906101000a900460ff1681565b60046020528060005260406000206000915090505481565b600360019054906101000a900460ff16610978576040517f08c379a000000000000000000000000000000000000000000000000000000000815260040161096f9061172c565b60405180910390fd5b610983868686610d34565b61098e838383610f8e565b60003390506000826109a08388610de0565b6109aa91906117f1565b905080600460008473ffffffffffffffffffffffffffffffffffffffff1673ffffffffffffffffffffffffffffffffffffffff16815260200190815260200160002060008282546109fb919061177b565b925050819055506000600282610a119190611862565b905080600560008573ffffffffffffffffffffffffffffffffffffffff1673ffffffffffffffffffffffffffffffffffffffff1681526020019081526020016000206000828254610a62919061177b565b92505081905550610ad47f0000000000000000000000000000000000000000000000000000000000000000827f000000000000000000000000000000000000000000000000000000000000000073ffffffffffffffffffffffffffffffffffffffff16610e4b9092919063ffffffff16565b610b1f83827f000000000000000000000000000000000000000000000000000000000000000073ffffffffffffffffffffffffffffffffffffffff16610e4b9092919063ffffffff16565b8273ffffffffffffffffffffffffffffffffffffffff167fd8138f8a3f377c5259ca548e70e4c2de94f129f5a11036a15b69513cba2b426a82604051610b659190611648565b60405180910390a28273ffffffffffffffffffffffffffffffffffffffff167f2a01595cddf097c90216094025db714da3f4e5bd8877b56ba86a24ecead8e54382604051610bb39190611648565b60405180910390a2505050505050505050565b600360009054906101000a900460ff1681565b610be1610cad565b600073ffffffffffffffffffffffffffffffffffffffff168173ffffffffffffffffffffffffffffffffffffffff1603610c535760006040517f1e4fbdf7000000000000000000000000000000000000000000000000000000008152600401610c4a9190611356565b60405180910390fd5b610c5c81610eca565b50565b610c67610cad565b8060028190555050565b60056020528060005260406000206000915090505481565b7f000000000000000000000000000000000000000000000000000000000000000081565b610cb561103a565b73ffffffffffffffffffffffffffffffffffffffff16610cd36108d5565b73ffffffffffffffffffffffffffffffffffffffff1614610d3257610cf661103a565b6040517f118cdaa7000000000000000000000000000000000000000000000000000000008152600401610d299190611356565b60405180910390fd5b565b6000600154905060003383604051602001610d50929190611893565b60405160208183030381529060405280519060200120604051602001610d7691906118dd565b604051602081830303815290604052805190602001209050610d9a85858484611042565b610dd9576040517f08c379a0000000000000000000000000000000000000000000000000000000008152600401610dd090611944565b60405180910390fd5b5050505050565b600080600460008573ffffffffffffffffffffffffffffffffffffffff1673ffffffffffffffffffffffffffffffffffffffff16815260200190815260200160002054905082811115610e3657610e35611964565b5b8083610e429190611993565b91505092915050565b610ec5838473ffffffffffffffffffffffffffffffffffffffff1663a9059cbb8585604051602401610e7e929190611893565b604051602081830303815290604052915060e01b6020820180517bffffffffffffffffffffffffffffffffffffffffffffffffffffffff8381831617835250505050611097565b505050565b60008060009054906101000a900473ffffffffffffffffffffffffffffffffffffffff169050816000806101000a81548173ffffffffffffffffffffffffffffffffffffffff021916908373ffffffffffffffffffffffffffffffffffffffff1602179055508173ffffffffffffffffffffffffffffffffffffffff168173ffffffffffffffffffffffffffffffffffffffff167f8be0079c531659141344cd1fd0a4f28419497f9722a3daafe3b4186f6b6457e060405160405180910390a35050565b6000600254905060003383604051602001610faa929190611893565b60405160208183030381529060405280519060200120604051602001610fd091906118dd565b604051602081830303815290604052805190602001209050610ff485858484611042565b611033576040517f08c379a000000000000000000000000000000000000000000000000000000000815260040161102a90611a13565b60405180910390fd5b5050505050565b600033905090565b60008082905060005b86869050811015611088576110798288888481811061106d5761106c611a33565b5b9050602002013561112e565b9150808060010191505061104b565b50838114915050949350505050565b60006110c2828473ffffffffffffffffffffffffffffffffffffffff1661115e90919063ffffffff16565b905060008151141580156110e75750808060200190518101906110e59190611a8e565b155b1561112957826040517f5274afe70000000000000000000000000000000000000000000000000000000081526004016111209190611356565b60405180910390fd5b505050565b600081831061113e578183611141565b82825b809350819450505082600052816020526040600020905092915050565b606061116c83836000611174565b905092915050565b6060814710156111bb57306040517fcd7860590000000000000000000000000000000000000000000000000000000081526004016111b29190611356565b60405180910390fd5b6000808573ffffffffffffffffffffffffffffffffffffffff1684866040516111e49190611b2c565b60006040518083038185875af1925050503d8060008114611221576040519150601f19603f3d011682016040523d82523d6000602084013e611226565b606091505b5091509150611236868383611241565b925050509392505050565b60608261125657611251826112d0565b6112c8565b6000825114801561127e575060008473ffffffffffffffffffffffffffffffffffffffff163b145b156112c057836040517f9996b3150000000000000000000000000000000000000000000000000000000081526004016112b79190611356565b60405180910390fd5b8190506112c9565b5b9392505050565b6000815111156112e35780518082602001fd5b6040517f1425ea4200000000000000000000000000000000000000000000000000000000815260040160405180910390fd5b600073ffffffffffffffffffffffffffffffffffffffff82169050919050565b600061134082611315565b9050919050565b61135081611335565b82525050565b600060208201905061136b6000830184611347565b92915050565b6000819050919050565b61138481611371565b82525050565b600060208201905061139f600083018461137b565b92915050565b600080fd5b600080fd5b600080fd5b600080fd5b600080fd5b60008083601f8401126113d4576113d36113af565b5b8235905067ffffffffffffffff8111156113f1576113f06113b4565b5b60208301915083602082028301111561140d5761140c6113b9565b5b9250929050565b6000819050919050565b61142781611414565b811461143257600080fd5b50565b6000813590506114448161141e565b92915050565b600080600060408486031215611463576114626113a5565b5b600084013567ffffffffffffffff811115611481576114806113aa565b5b61148d868287016113be565b935093505060206114a086828701611435565b9150509250925092565b600080600080600080608087890312156114c7576114c66113a5565b5b600087013567ffffffffffffffff8111156114e5576114e46113aa565b5b6114f189828a016113be565b9650965050602061150489828a01611435565b945050604087013567ffffffffffffffff811115611525576115246113aa565b5b61153189828a016113be565b9350935050606061154489828a01611435565b9150509295509295509295565b61155a81611371565b811461156557600080fd5b50565b60008135905061157781611551565b92915050565b600060208284031215611593576115926113a5565b5b60006115a184828501611568565b91505092915050565b60008115159050919050565b6115bf816115aa565b82525050565b60006020820190506115da60008301846115b6565b92915050565b6115e981611335565b81146115f457600080fd5b50565b600081359050611606816115e0565b92915050565b600060208284031215611622576116216113a5565b5b6000611630848285016115f7565b91505092915050565b61164281611414565b82525050565b600060208201905061165d6000830184611639565b92915050565b600082825260208201905092915050565b7f436c61696d696e672069732064697361626c6564000000000000000000000000600082015250565b60006116aa601483611663565b91506116b582611674565b602082019050919050565b600060208201905081810360008301526116d98161169d565b9050919050565b7f436f6e747261637473206172652064697361626c656400000000000000000000600082015250565b6000611716601683611663565b9150611721826116e0565b602082019050919050565b6000602082019050818103600083015261174581611709565b9050919050565b7f4e487b7100000000000000000000000000000000000000000000000000000000600052601160045260246000fd5b600061178682611414565b915061179183611414565b92508282019050808211156117a9576117a861174c565b5b92915050565b6000815190506117be8161141e565b92915050565b6000602082840312156117da576117d96113a5565b5b60006117e8848285016117af565b91505092915050565b60006117fc82611414565b915061180783611414565b925082820261181581611414565b9150828204841483151761182c5761182b61174c565b5b5092915050565b7f4e487b7100000000000000000000000000000000000000000000000000000000600052601260045260246000fd5b600061186d82611414565b915061187883611414565b92508261188857611887611833565b5b828204905092915050565b60006040820190506118a86000830185611347565b6118b56020830184611639565b9392505050565b6000819050919050565b6118d76118d282611371565b6118bc565b82525050565b60006118e982846118c6565b60208201915081905092915050565b7f496e76616c696420416c6c6f636174696f6e2050726f6f660000000000000000600082015250565b600061192e601883611663565b9150611939826118f8565b602082019050919050565b6000602082019050818103600083015261195d81611921565b9050919050565b7f4e487b7100000000000000000000000000000000000000000000000000000000600052600160045260246000fd5b600061199e82611414565b91506119a983611414565b92508282039050818111156119c1576119c061174c565b5b92915050565b7f496e76616c6964204d756c7469706c6965722050726f6f660000000000000000600082015250565b60006119fd601883611663565b9150611a08826119c7565b602082019050919050565b60006020820190508181036000830152611a2c816119f0565b9050919050565b7f4e487b7100000000000000000000000000000000000000000000000000000000600052603260045260246000fd5b611a6b816115aa565b8114611a7657600080fd5b50565b600081519050611a8881611a62565b92915050565b600060208284031215611aa457611aa36113a5565b5b6000611ab284828501611a79565b91505092915050565b600081519050919050565b600081905092915050565b60005b83811015611aef578082015181840152602081019050611ad4565b60008484015250505050565b6000611b0682611abb565b611b108185611ac6565b9350611b20818560208601611ad1565b80840191505092915050565b6000611b388284611afb565b91508190509291505056fea2646970667358221220b7c9fa87ad6e1a3750d28fb2b68ccae49486feb04a149560d6a909d2aab11a1464736f6c63430008180033",
  "linkReferences": {},
  "deployedLinkReferences": {}
}